{
  "contractName": "whistleBlower",
  "abi": [
    {
      "anonymous": false,
      "inputs": [
        {
          "indexed": false,
          "internalType": "uint256",
          "name": "postId",
          "type": "uint256"
        },
        {
          "indexed": false,
          "internalType": "string",
          "name": "postHash",
          "type": "string"
        },
        {
          "indexed": false,
          "internalType": "string",
          "name": "postTitle",
          "type": "string"
        },
        {
          "indexed": false,
          "internalType": "string",
          "name": "postCategory",
          "type": "string"
        },
        {
          "indexed": false,
          "internalType": "string",
          "name": "postDescription",
          "type": "string"
        },
        {
          "indexed": false,
          "internalType": "uint256",
          "name": "upvotes",
          "type": "uint256"
        },
        {
          "indexed": false,
          "internalType": "uint256",
          "name": "downvotes",
          "type": "uint256"
        },
        {
          "indexed": false,
          "internalType": "uint256",
          "name": "uploadTime",
          "type": "uint256"
        },
        {
          "indexed": false,
          "internalType": "string[]",
          "name": "comments",
          "type": "string[]"
        },
        {
          "indexed": false,
          "internalType": "address payable",
          "name": "uploader",
          "type": "address"
        }
      ],
      "name": "PostUploaded",
      "type": "event"
    },
    {
      "inputs": [],
      "name": "postCount",
      "outputs": [
        {
          "internalType": "uint256",
          "name": "",
          "type": "uint256"
        }
      ],
      "stateMutability": "view",
      "type": "function",
      "constant": true
    },
    {
      "inputs": [
        {
          "internalType": "uint256",
          "name": "",
          "type": "uint256"
        }
      ],
      "name": "posts",
      "outputs": [
        {
          "internalType": "uint256",
          "name": "postId",
          "type": "uint256"
        },
        {
          "internalType": "string",
          "name": "postHash",
          "type": "string"
        },
        {
          "internalType": "string",
          "name": "postTitle",
          "type": "string"
        },
        {
          "internalType": "string",
          "name": "postCategory",
          "type": "string"
        },
        {
          "internalType": "string",
          "name": "postDescription",
          "type": "string"
        },
        {
          "internalType": "uint256",
          "name": "upvotes",
          "type": "uint256"
        },
        {
          "internalType": "uint256",
          "name": "downvotes",
          "type": "uint256"
        },
        {
          "internalType": "uint256",
          "name": "uploadTime",
          "type": "uint256"
        },
        {
          "internalType": "address payable",
          "name": "uploader",
          "type": "address"
        }
      ],
      "stateMutability": "view",
      "type": "function",
      "constant": true
    },
    {
      "inputs": [
        {
          "internalType": "uint32",
          "name": "_postId",
          "type": "uint32"
        }
      ],
      "name": "postUpvoted",
      "outputs": [
        {
          "internalType": "bool",
          "name": "",
          "type": "bool"
        }
      ],
      "stateMutability": "nonpayable",
      "type": "function"
    },
    {
      "inputs": [
        {
          "internalType": "uint32",
          "name": "_postId",
          "type": "uint32"
        }
      ],
      "name": "postDownvoted",
      "outputs": [
        {
          "internalType": "bool",
          "name": "",
          "type": "bool"
        }
      ],
      "stateMutability": "nonpayable",
      "type": "function"
    },
    {
      "inputs": [
        {
          "internalType": "uint256",
          "name": "_postId",
          "type": "uint256"
        },
        {
          "internalType": "string",
          "name": "_comment",
          "type": "string"
        }
      ],
      "name": "addComment",
      "outputs": [],
      "stateMutability": "nonpayable",
      "type": "function"
    },
    {
      "inputs": [
        {
          "internalType": "string",
          "name": "_postHash",
          "type": "string"
        },
        {
          "internalType": "string",
          "name": "_postTitle",
          "type": "string"
        },
        {
          "internalType": "string",
          "name": "_postCategory",
          "type": "string"
        },
        {
          "internalType": "string",
          "name": "_postDescription",
          "type": "string"
        }
      ],
      "name": "uploadPost",
      "outputs": [],
      "stateMutability": "nonpayable",
      "type": "function"
    }
  ],
  "bytecode": "0x60806040526000805534801561001457600080fd5b506112c3806100246000396000f3fe608060405234801561001057600080fd5b50600436106100625760003560e01c80630b1e7f831461006757806317906c2e1461009f57806332a1f7f0146100bd5780634ac8e7fd146100ed578063aa7e568314610109578063e67a2cea14610125575b600080fd5b610081600480360381019061007c9190610ac3565b610155565b60405161009699989796959493929190610bd9565b60405180910390f35b6100a76103e3565b6040516100b49190610c82565b60405180910390f35b6100d760048036038101906100d29190610cd9565b6103e9565b6040516100e49190610d21565b60405180910390f35b61010760048036038101906101029190610e71565b610528565b005b610123600480360381019061011e9190610f48565b61077f565b005b61013f600480360381019061013a9190610cd9565b6107d3565b60405161014c9190610d21565b60405180910390f35b600160205280600052604060002060009150905080600001549080600101805461017e90610fd3565b80601f01602080910402602001604051908101604052809291908181526020018280546101aa90610fd3565b80156101f75780601f106101cc576101008083540402835291602001916101f7565b820191906000526020600020905b8154815290600101906020018083116101da57829003601f168201915b50505050509080600201805461020c90610fd3565b80601f016020809104026020016040519081016040528092919081815260200182805461023890610fd3565b80156102855780601f1061025a57610100808354040283529160200191610285565b820191906000526020600020905b81548152906001019060200180831161026857829003601f168201915b50505050509080600301805461029a90610fd3565b80601f01602080910402602001604051908101604052809291908181526020018280546102c690610fd3565b80156103135780601f106102e857610100808354040283529160200191610313565b820191906000526020600020905b8154815290600101906020018083116102f657829003601f168201915b50505050509080600401805461032890610fd3565b80601f016020809104026020016040519081016040528092919081815260200182805461035490610fd3565b80156103a15780601f10610376576101008083540402835291602001916103a1565b820191906000526020600020905b81548152906001019060200180831161038457829003601f168201915b5050505050908060050154908060060154908060070154908060090160009054906101000a900473ffffffffffffffffffffffffffffffffffffffff16905089565b60005481565b6000600260008363ffffffff1663ffffffff16815260200190815260200160002060003373ffffffffffffffffffffffffffffffffffffffff1673ffffffffffffffffffffffffffffffffffffffff16815260200190815260200160002060009054906101000a900460ff1615801561046957506000548263ffffffff16105b1561051e576001600260008463ffffffff1663ffffffff16815260200190815260200160002060003373ffffffffffffffffffffffffffffffffffffffff1673ffffffffffffffffffffffffffffffffffffffff16815260200190815260200160002060006101000a81548160ff021916908315150217905550600160008363ffffffff168152602001908152602001600020600501600081548092919061051090611034565b919050555060019050610523565b600090505b919050565b600084511161053657600080fd5b600083511161054457600080fd5b600082511161055257600080fd5b600081511161056057600080fd5b600073ffffffffffffffffffffffffffffffffffffffff163373ffffffffffffffffffffffffffffffffffffffff16141561059a57600080fd5b6060604051806101400160405280600054815260200186815260200185815260200184815260200183815260200160008152602001600081526020014281526020018281526020013373ffffffffffffffffffffffffffffffffffffffff168152506001600080548152602001908152602001600020600082015181600001556020820151816001019080519060200190610636929190610912565b506040820151816002019080519060200190610653929190610912565b506060820151816003019080519060200190610670929190610912565b50608082015181600401908051906020019061068d929190610912565b5060a0820151816005015560c0820151816006015560e082015181600701556101008201518160080190805190602001906106c9929190610998565b506101208201518160090160006101000a81548173ffffffffffffffffffffffffffffffffffffffff021916908373ffffffffffffffffffffffffffffffffffffffff16021790555090505060008081548092919061072790611034565b91905055507ff4f1fa03f043864b0f767a6eb5b3e74749ec9b6c3a25dc9ea08db53396b0c011600054868686866000804289336040516107709a999897969594939291906111ce565b60405180910390a15050505050565b60016000838152602001908152602001600020600801819080600181540180825580915050600190039060005260206000200160009091909190915090805190602001906107ce929190610912565b505050565b6000600360008363ffffffff1663ffffffff16815260200190815260200160002060003373ffffffffffffffffffffffffffffffffffffffff1673ffffffffffffffffffffffffffffffffffffffff16815260200190815260200160002060009054906101000a900460ff1615801561085357506000548263ffffffff16105b15610908576001600360008463ffffffff1663ffffffff16815260200190815260200160002060003373ffffffffffffffffffffffffffffffffffffffff1673ffffffffffffffffffffffffffffffffffffffff16815260200190815260200160002060006101000a81548160ff021916908315150217905550600160008363ffffffff16815260200190815260200160002060060160008154809291906108fa90611034565b91905055506001905061090d565b600090505b919050565b82805461091e90610fd3565b90600052602060002090601f0160209004810192826109405760008555610987565b82601f1061095957805160ff1916838001178555610987565b82800160010185558215610987579182015b8281111561098657825182559160200191906001019061096b565b5b50905061099491906109f8565b5090565b8280548282559060005260206000209081019282156109e7579160200282015b828111156109e65782518290805190602001906109d6929190610912565b50916020019190600101906109b8565b5b5090506109f49190610a15565b5090565b5b80821115610a115760008160009055506001016109f9565b5090565b5b80821115610a355760008181610a2c9190610a39565b50600101610a16565b5090565b508054610a4590610fd3565b6000825580601f10610a575750610a76565b601f016020900490600052602060002090810190610a7591906109f8565b5b50565b6000604051905090565b600080fd5b600080fd5b6000819050919050565b610aa081610a8d565b8114610aab57600080fd5b50565b600081359050610abd81610a97565b92915050565b600060208284031215610ad957610ad8610a83565b5b6000610ae784828501610aae565b91505092915050565b610af981610a8d565b82525050565b600081519050919050565b600082825260208201905092915050565b60005b83811015610b39578082015181840152602081019050610b1e565b83811115610b48576000848401525b50505050565b6000601f19601f8301169050919050565b6000610b6a82610aff565b610b748185610b0a565b9350610b84818560208601610b1b565b610b8d81610b4e565b840191505092915050565b600073ffffffffffffffffffffffffffffffffffffffff82169050919050565b6000610bc382610b98565b9050919050565b610bd381610bb8565b82525050565b600061012082019050610bef600083018c610af0565b8181036020830152610c01818b610b5f565b90508181036040830152610c15818a610b5f565b90508181036060830152610c298189610b5f565b90508181036080830152610c3d8188610b5f565b9050610c4c60a0830187610af0565b610c5960c0830186610af0565b610c6660e0830185610af0565b610c74610100830184610bca565b9a9950505050505050505050565b6000602082019050610c976000830184610af0565b92915050565b600063ffffffff82169050919050565b610cb681610c9d565b8114610cc157600080fd5b50565b600081359050610cd381610cad565b92915050565b600060208284031215610cef57610cee610a83565b5b6000610cfd84828501610cc4565b91505092915050565b60008115159050919050565b610d1b81610d06565b82525050565b6000602082019050610d366000830184610d12565b92915050565b600080fd5b600080fd5b7f4e487b7100000000000000000000000000000000000000000000000000000000600052604160045260246000fd5b610d7e82610b4e565b810181811067ffffffffffffffff82111715610d9d57610d9c610d46565b5b80604052505050565b6000610db0610a79565b9050610dbc8282610d75565b919050565b600067ffffffffffffffff821115610ddc57610ddb610d46565b5b610de582610b4e565b9050602081019050919050565b82818337600083830152505050565b6000610e14610e0f84610dc1565b610da6565b905082815260208101848484011115610e3057610e2f610d41565b5b610e3b848285610df2565b509392505050565b600082601f830112610e5857610e57610d3c565b5b8135610e68848260208601610e01565b91505092915050565b60008060008060808587031215610e8b57610e8a610a83565b5b600085013567ffffffffffffffff811115610ea957610ea8610a88565b5b610eb587828801610e43565b945050602085013567ffffffffffffffff811115610ed657610ed5610a88565b5b610ee287828801610e43565b935050604085013567ffffffffffffffff811115610f0357610f02610a88565b5b610f0f87828801610e43565b925050606085013567ffffffffffffffff811115610f3057610f2f610a88565b5b610f3c87828801610e43565b91505092959194509250565b60008060408385031215610f5f57610f5e610a83565b5b6000610f6d85828601610aae565b925050602083013567ffffffffffffffff811115610f8e57610f8d610a88565b5b610f9a85828601610e43565b9150509250929050565b7f4e487b7100000000000000000000000000000000000000000000000000000000600052602260045260246000fd5b60006002820490506001821680610feb57607f821691505b60208210811415610fff57610ffe610fa4565b5b50919050565b7f4e487b7100000000000000000000000000000000000000000000000000000000600052601160045260246000fd5b600061103f82610a8d565b91507fffffffffffffffffffffffffffffffffffffffffffffffffffffffffffffffff82141561107257611071611005565b5b600182019050919050565b6000819050919050565b6000819050919050565b60006110ac6110a76110a28461107d565b611087565b610a8d565b9050919050565b6110bc81611091565b82525050565b600081519050919050565b600082825260208201905092915050565b6000819050602082019050919050565b600082825260208201905092915050565b600061110a82610aff565b61111481856110ee565b9350611124818560208601610b1b565b61112d81610b4e565b840191505092915050565b600061114483836110ff565b905092915050565b6000602082019050919050565b6000611164826110c2565b61116e81856110cd565b935083602082028501611180856110de565b8060005b858110156111bc578484038952815161119d8582611138565b94506111a88361114c565b925060208a01995050600181019050611184565b50829750879550505050505092915050565b6000610140820190506111e4600083018d610af0565b81810360208301526111f6818c610b5f565b9050818103604083015261120a818b610b5f565b9050818103606083015261121e818a610b5f565b905081810360808301526112328189610b5f565b905061124160a08301886110b3565b61124e60c08301876110b3565b61125b60e0830186610af0565b81810361010083015261126e8185611159565b905061127e610120830184610bca565b9b9a505050505050505050505056fea264697066735822122037f7bd3edc74f6f6419ff64902e2d6ae15afb4f6673a58c793c94528b09996f264736f6c634300080a0033",
  "immutableReferences": {},
  "source": "// SPDX-License-Identifier: MIT\npragma solidity >=0.8.10 <0.9.0;\n\ncontract whistleBlower {\n\t// Number of posts\n\tuint256 public postCount = 0;\n\t// Mapping fileId=>Struct\n\tmapping(uint256 => Post) public posts;\n\tmapping(uint32 => mapping(address => bool)) upVoteListGlobal;\n\tmapping(uint32 => mapping(address => bool)) downVoteListGlobal;\n\n\t// Struct\n\tstruct Post {\n\t\tuint256 postId;\n\t\tstring postHash;\n\t\tstring postTitle;\n\t\tstring postCategory;\n\t\tstring postDescription;\n\t\tuint256 upvotes;\n\t\tuint256 downvotes;\n\t\tuint256 uploadTime;\n\t\tstring[] comments;\n\t\taddress payable uploader;\n\t}\n\n\t// Event\n\tevent PostUploaded(\n\t\tuint256 postId,\n\t\tstring postHash,\n\t\tstring postTitle,\n\t\tstring postCategory,\n\t\tstring postDescription,\n\t\tuint256 upvotes,\n\t\tuint256 downvotes,\n\t\tuint256 uploadTime,\n\t\tstring[] comments,\n\t\taddress payable uploader\n\t);\n\n\tfunction postUpvoted(uint32 _postId) public returns (bool) {\n\t\t// checks if the user alredy up voted and the post is exist or not\n\t\tif (\n\t\t\t!upVoteListGlobal[_postId][msg.sender] && uint256(_postId) < postCount\n\t\t) {\n\t\t\tupVoteListGlobal[_postId][msg.sender] = true;\n\t\t\tposts[_postId].upvotes++;\n\t\t\treturn true;\n\t\t} else {\n\t\t\treturn false;\n\t\t}\n\t}\n\n\tfunction postDownvoted(uint32 _postId) public returns (bool) {\n\t\t// checks if the user alredy down voted and the post is exist or not\n\t\tif (\n\t\t\t!downVoteListGlobal[_postId][msg.sender] && uint256(_postId) < postCount\n\t\t) {\n\t\t\tdownVoteListGlobal[_postId][msg.sender] = true;\n\t\t\tposts[_postId].downvotes++;\n\t\t\treturn true;\n\t\t} else {\n\t\t\treturn false;\n\t\t}\n\t}\n\n\tfunction addComment(uint256 _postId, string memory _comment) public {\n\t\tposts[_postId].comments.push(_comment);\n\t}\n\n\t//   function getComment(uint _id,uint i) public view returns(string memory){\n\t//       return posts[_id].comments[i];\n\t//   }\n\n\t// Upload post function\n\tfunction uploadPost(\n\t\tstring memory _postHash,\n\t\tstring memory _postTitle,\n\t\tstring memory _postCategory,\n\t\tstring memory _postDescription\n\t) public {\n\t\t// Make sure the post hash exists\n\t\trequire(bytes(_postHash).length > 0);\n\t\t// Make sure  postTitle exists\n\t\trequire(bytes(_postTitle).length > 0);\n\t\t// Make sure  postTitle exists\n\t\trequire(bytes(_postCategory).length > 0);\n\t\t// Make sure post description exists\n\t\trequire(bytes(_postDescription).length > 0);\n\t\t// Make sure uploader address exists\n\t\trequire(msg.sender != address(0));\n\n\t\tstring[] memory vector;\n\t\t// Add Post to the contract\n\n\t\t// upvoteListGlobal = Post\n\t\tposts[postCount] = Post(\n\t\t\tpostCount,\n\t\t\t_postHash,\n\t\t\t_postTitle,\n\t\t\t_postCategory,\n\t\t\t_postDescription,\n\t\t\t0,\n\t\t\t0,\n\t\t\tblock.timestamp,\n\t\t\tvector,\n\t\t\tpayable(msg.sender)\n\t\t);\n\n\t\t// Increment post id\n\t\tpostCount++;\n\n\t\t// Trigger an event\n\t\temit PostUploaded(\n\t\t\tpostCount,\n\t\t\t_postHash,\n\t\t\t_postTitle,\n\t\t\t_postCategory,\n\t\t\t_postDescription,\n\t\t\t0,\n\t\t\t0,\n\t\t\tblock.timestamp,\n\t\t\tvector,\n\t\t\tpayable(msg.sender)\n\t\t);\n\t}\n}\n",
  "sourcePath": "/home/bhanu/blockchain/WhistleBlower/contracts/whistleBlower.sol",
  "compiler": {
    "name": "solc",
    "version": "0.8.10+commit.fc410830.Emscripten.clang"
  },
  "schemaVersion": "3.4.3",
  "updatedAt": "2021-12-16T10:05:37.069Z",
  "networkType": "ethereum",
  "devdoc": {
    "kind": "dev",
    "methods": {},
    "version": 1
  },
  "userdoc": {
    "kind": "user",
    "methods": {},
    "version": 1
  }
}