{
  "contractName": "whistleBlower",
  "abi": [
    {
      "anonymous": false,
      "inputs": [
        {
          "indexed": false,
          "internalType": "uint256",
          "name": "postId",
          "type": "uint256"
        },
        {
          "indexed": false,
          "internalType": "string",
          "name": "postHash",
          "type": "string"
        },
        {
          "indexed": false,
          "internalType": "string",
          "name": "postTitle",
          "type": "string"
        },
        {
          "indexed": false,
          "internalType": "string",
          "name": "postCategory",
          "type": "string"
        },
        {
          "indexed": false,
          "internalType": "string",
          "name": "postDescription",
          "type": "string"
        },
        {
          "indexed": false,
          "internalType": "uint256",
          "name": "upvotes",
          "type": "uint256"
        },
        {
          "indexed": false,
          "internalType": "uint256",
          "name": "downvotes",
          "type": "uint256"
        },
        {
          "indexed": false,
          "internalType": "uint256",
          "name": "uploadTime",
          "type": "uint256"
        },
        {
          "indexed": false,
          "internalType": "string[]",
          "name": "comments",
          "type": "string[]"
        },
        {
          "indexed": false,
          "internalType": "address payable",
          "name": "uploader",
          "type": "address"
        }
      ],
      "name": "PostUploaded",
      "type": "event"
    },
    {
      "inputs": [],
      "name": "postCount",
      "outputs": [
        {
          "internalType": "uint256",
          "name": "",
          "type": "uint256"
        }
      ],
      "stateMutability": "view",
      "type": "function",
      "constant": true
    },
    {
      "inputs": [
        {
          "internalType": "uint256",
          "name": "",
          "type": "uint256"
        }
      ],
      "name": "posts",
      "outputs": [
        {
          "internalType": "uint256",
          "name": "postId",
          "type": "uint256"
        },
        {
          "internalType": "string",
          "name": "postHash",
          "type": "string"
        },
        {
          "internalType": "string",
          "name": "postTitle",
          "type": "string"
        },
        {
          "internalType": "string",
          "name": "postCategory",
          "type": "string"
        },
        {
          "internalType": "string",
          "name": "postDescription",
          "type": "string"
        },
        {
          "internalType": "uint256",
          "name": "upvotes",
          "type": "uint256"
        },
        {
          "internalType": "uint256",
          "name": "downvotes",
          "type": "uint256"
        },
        {
          "internalType": "uint256",
          "name": "uploadTime",
          "type": "uint256"
        },
        {
          "internalType": "address payable",
          "name": "uploader",
          "type": "address"
        }
      ],
      "stateMutability": "view",
      "type": "function",
      "constant": true
    },
    {
      "inputs": [
        {
          "internalType": "uint32",
          "name": "_postId",
          "type": "uint32"
        }
      ],
      "name": "postUpvoted",
      "outputs": [
        {
          "internalType": "bool",
          "name": "",
          "type": "bool"
        }
      ],
      "stateMutability": "nonpayable",
      "type": "function"
    },
    {
      "inputs": [],
      "name": "test",
      "outputs": [
        {
          "internalType": "bool",
          "name": "",
          "type": "bool"
        }
      ],
      "stateMutability": "pure",
      "type": "function",
      "constant": true
    },
    {
      "inputs": [
        {
          "internalType": "uint32",
          "name": "_postId",
          "type": "uint32"
        }
      ],
      "name": "postDownvoted",
      "outputs": [
        {
          "internalType": "bool",
          "name": "",
          "type": "bool"
        }
      ],
      "stateMutability": "nonpayable",
      "type": "function"
    },
    {
      "inputs": [
        {
          "internalType": "uint256",
          "name": "_postId",
          "type": "uint256"
        },
        {
          "internalType": "string",
          "name": "_comment",
          "type": "string"
        }
      ],
      "name": "addComment",
      "outputs": [],
      "stateMutability": "nonpayable",
      "type": "function"
    },
    {
      "inputs": [
        {
          "internalType": "string",
          "name": "_postHash",
          "type": "string"
        },
        {
          "internalType": "string",
          "name": "_postTitle",
          "type": "string"
        },
        {
          "internalType": "string",
          "name": "_postCategory",
          "type": "string"
        },
        {
          "internalType": "string",
          "name": "_postDescription",
          "type": "string"
        }
      ],
      "name": "uploadPost",
      "outputs": [],
      "stateMutability": "nonpayable",
      "type": "function"
    }
  ],
  "bytecode": "0x60806040526000805534801561001457600080fd5b50611301806100246000396000f3fe608060405234801561001057600080fd5b506004361061007d5760003560e01c80634ac8e7fd1161005b5780634ac8e7fd14610108578063aa7e568314610124578063e67a2cea14610140578063f8a8fd6d146101705761007d565b80630b1e7f831461008257806317906c2e146100ba57806332a1f7f0146100d8575b600080fd5b61009c60048036038101906100979190610b01565b61018e565b6040516100b199989796959493929190610c17565b60405180910390f35b6100c261041c565b6040516100cf9190610cc0565b60405180910390f35b6100f260048036038101906100ed9190610d17565b610422565b6040516100ff9190610d5f565b60405180910390f35b610122600480360381019061011d9190610eaf565b610561565b005b61013e60048036038101906101399190610f86565b6107b8565b005b61015a60048036038101906101559190610d17565b61080c565b6040516101679190610d5f565b60405180910390f35b61017861094b565b6040516101859190610d5f565b60405180910390f35b60016020528060005260406000206000915090508060000154908060010180546101b790611011565b80601f01602080910402602001604051908101604052809291908181526020018280546101e390611011565b80156102305780601f1061020557610100808354040283529160200191610230565b820191906000526020600020905b81548152906001019060200180831161021357829003601f168201915b50505050509080600201805461024590611011565b80601f016020809104026020016040519081016040528092919081815260200182805461027190611011565b80156102be5780601f10610293576101008083540402835291602001916102be565b820191906000526020600020905b8154815290600101906020018083116102a157829003601f168201915b5050505050908060030180546102d390611011565b80601f01602080910402602001604051908101604052809291908181526020018280546102ff90611011565b801561034c5780601f106103215761010080835404028352916020019161034c565b820191906000526020600020905b81548152906001019060200180831161032f57829003601f168201915b50505050509080600401805461036190611011565b80601f016020809104026020016040519081016040528092919081815260200182805461038d90611011565b80156103da5780601f106103af576101008083540402835291602001916103da565b820191906000526020600020905b8154815290600101906020018083116103bd57829003601f168201915b5050505050908060050154908060060154908060070154908060090160009054906101000a900473ffffffffffffffffffffffffffffffffffffffff16905089565b60005481565b6000600260008363ffffffff1663ffffffff16815260200190815260200160002060003373ffffffffffffffffffffffffffffffffffffffff1673ffffffffffffffffffffffffffffffffffffffff16815260200190815260200160002060009054906101000a900460ff161580156104a257506000548263ffffffff16105b15610557576001600260008463ffffffff1663ffffffff16815260200190815260200160002060003373ffffffffffffffffffffffffffffffffffffffff1673ffffffffffffffffffffffffffffffffffffffff16815260200190815260200160002060006101000a81548160ff021916908315150217905550600160008363ffffffff168152602001908152602001600020600501600081548092919061054990611072565b91905055506001905061055c565b600090505b919050565b600084511161056f57600080fd5b600083511161057d57600080fd5b600082511161058b57600080fd5b600081511161059957600080fd5b600073ffffffffffffffffffffffffffffffffffffffff163373ffffffffffffffffffffffffffffffffffffffff1614156105d357600080fd5b6060604051806101400160405280600054815260200186815260200185815260200184815260200183815260200160008152602001600081526020014281526020018281526020013373ffffffffffffffffffffffffffffffffffffffff16815250600160008054815260200190815260200160002060008201518160000155602082015181600101908051906020019061066f929190610950565b50604082015181600201908051906020019061068c929190610950565b5060608201518160030190805190602001906106a9929190610950565b5060808201518160040190805190602001906106c6929190610950565b5060a0820151816005015560c0820151816006015560e082015181600701556101008201518160080190805190602001906107029291906109d6565b506101208201518160090160006101000a81548173ffffffffffffffffffffffffffffffffffffffff021916908373ffffffffffffffffffffffffffffffffffffffff16021790555090505060008081548092919061076090611072565b91905055507ff4f1fa03f043864b0f767a6eb5b3e74749ec9b6c3a25dc9ea08db53396b0c011600054868686866000804289336040516107a99a9998979695949392919061120c565b60405180910390a15050505050565b6001600083815260200190815260200160002060080181908060018154018082558091505060019003906000526020600020016000909190919091509080519060200190610807929190610950565b505050565b6000600360008363ffffffff1663ffffffff16815260200190815260200160002060003373ffffffffffffffffffffffffffffffffffffffff1673ffffffffffffffffffffffffffffffffffffffff16815260200190815260200160002060009054906101000a900460ff1615801561088c57506000548263ffffffff16105b15610941576001600360008463ffffffff1663ffffffff16815260200190815260200160002060003373ffffffffffffffffffffffffffffffffffffffff1673ffffffffffffffffffffffffffffffffffffffff16815260200190815260200160002060006101000a81548160ff021916908315150217905550600160008363ffffffff168152602001908152602001600020600601600081548092919061093390611072565b919050555060019050610946565b600090505b919050565b600090565b82805461095c90611011565b90600052602060002090601f01602090048101928261097e57600085556109c5565b82601f1061099757805160ff19168380011785556109c5565b828001600101855582156109c5579182015b828111156109c45782518255916020019190600101906109a9565b5b5090506109d29190610a36565b5090565b828054828255906000526020600020908101928215610a25579160200282015b82811115610a24578251829080519060200190610a14929190610950565b50916020019190600101906109f6565b5b509050610a329190610a53565b5090565b5b80821115610a4f576000816000905550600101610a37565b5090565b5b80821115610a735760008181610a6a9190610a77565b50600101610a54565b5090565b508054610a8390611011565b6000825580601f10610a955750610ab4565b601f016020900490600052602060002090810190610ab39190610a36565b5b50565b6000604051905090565b600080fd5b600080fd5b6000819050919050565b610ade81610acb565b8114610ae957600080fd5b50565b600081359050610afb81610ad5565b92915050565b600060208284031215610b1757610b16610ac1565b5b6000610b2584828501610aec565b91505092915050565b610b3781610acb565b82525050565b600081519050919050565b600082825260208201905092915050565b60005b83811015610b77578082015181840152602081019050610b5c565b83811115610b86576000848401525b50505050565b6000601f19601f8301169050919050565b6000610ba882610b3d565b610bb28185610b48565b9350610bc2818560208601610b59565b610bcb81610b8c565b840191505092915050565b600073ffffffffffffffffffffffffffffffffffffffff82169050919050565b6000610c0182610bd6565b9050919050565b610c1181610bf6565b82525050565b600061012082019050610c2d600083018c610b2e565b8181036020830152610c3f818b610b9d565b90508181036040830152610c53818a610b9d565b90508181036060830152610c678189610b9d565b90508181036080830152610c7b8188610b9d565b9050610c8a60a0830187610b2e565b610c9760c0830186610b2e565b610ca460e0830185610b2e565b610cb2610100830184610c08565b9a9950505050505050505050565b6000602082019050610cd56000830184610b2e565b92915050565b600063ffffffff82169050919050565b610cf481610cdb565b8114610cff57600080fd5b50565b600081359050610d1181610ceb565b92915050565b600060208284031215610d2d57610d2c610ac1565b5b6000610d3b84828501610d02565b91505092915050565b60008115159050919050565b610d5981610d44565b82525050565b6000602082019050610d746000830184610d50565b92915050565b600080fd5b600080fd5b7f4e487b7100000000000000000000000000000000000000000000000000000000600052604160045260246000fd5b610dbc82610b8c565b810181811067ffffffffffffffff82111715610ddb57610dda610d84565b5b80604052505050565b6000610dee610ab7565b9050610dfa8282610db3565b919050565b600067ffffffffffffffff821115610e1a57610e19610d84565b5b610e2382610b8c565b9050602081019050919050565b82818337600083830152505050565b6000610e52610e4d84610dff565b610de4565b905082815260208101848484011115610e6e57610e6d610d7f565b5b610e79848285610e30565b509392505050565b600082601f830112610e9657610e95610d7a565b5b8135610ea6848260208601610e3f565b91505092915050565b60008060008060808587031215610ec957610ec8610ac1565b5b600085013567ffffffffffffffff811115610ee757610ee6610ac6565b5b610ef387828801610e81565b945050602085013567ffffffffffffffff811115610f1457610f13610ac6565b5b610f2087828801610e81565b935050604085013567ffffffffffffffff811115610f4157610f40610ac6565b5b610f4d87828801610e81565b925050606085013567ffffffffffffffff811115610f6e57610f6d610ac6565b5b610f7a87828801610e81565b91505092959194509250565b60008060408385031215610f9d57610f9c610ac1565b5b6000610fab85828601610aec565b925050602083013567ffffffffffffffff811115610fcc57610fcb610ac6565b5b610fd885828601610e81565b9150509250929050565b7f4e487b7100000000000000000000000000000000000000000000000000000000600052602260045260246000fd5b6000600282049050600182168061102957607f821691505b6020821081141561103d5761103c610fe2565b5b50919050565b7f4e487b7100000000000000000000000000000000000000000000000000000000600052601160045260246000fd5b600061107d82610acb565b91507fffffffffffffffffffffffffffffffffffffffffffffffffffffffffffffffff8214156110b0576110af611043565b5b600182019050919050565b6000819050919050565b6000819050919050565b60006110ea6110e56110e0846110bb565b6110c5565b610acb565b9050919050565b6110fa816110cf565b82525050565b600081519050919050565b600082825260208201905092915050565b6000819050602082019050919050565b600082825260208201905092915050565b600061114882610b3d565b611152818561112c565b9350611162818560208601610b59565b61116b81610b8c565b840191505092915050565b6000611182838361113d565b905092915050565b6000602082019050919050565b60006111a282611100565b6111ac818561110b565b9350836020820285016111be8561111c565b8060005b858110156111fa57848403895281516111db8582611176565b94506111e68361118a565b925060208a019950506001810190506111c2565b50829750879550505050505092915050565b600061014082019050611222600083018d610b2e565b8181036020830152611234818c610b9d565b90508181036040830152611248818b610b9d565b9050818103606083015261125c818a610b9d565b905081810360808301526112708189610b9d565b905061127f60a08301886110f1565b61128c60c08301876110f1565b61129960e0830186610b2e565b8181036101008301526112ac8185611197565b90506112bc610120830184610c08565b9b9a505050505050505050505056fea264697066735822122044684e9ed7d13423a4014e717fe299b555d7307198301f43b030ccf58a0c829764736f6c634300080a0033",
  "immutableReferences": {},
  "source": "// SPDX-License-Identifier: MIT\npragma solidity >=0.8.10 <0.9.0;\n\ncontract whistleBlower {\n\t// Number of posts\n\tuint256 public postCount = 0;\n\t// Mapping fileId=>Struct\n\tmapping(uint256 => Post) public posts;\n\tmapping(uint32 => mapping(address => bool)) upVoteListGlobal;\n\tmapping(uint32 => mapping(address => bool)) downVoteListGlobal;\n\n\t// Struct\n\tstruct Post {\n\t\tuint256 postId;\n\t\tstring postHash;\n\t\tstring postTitle;\n\t\tstring postCategory;\n\t\tstring postDescription;\n\t\tuint256 upvotes;\n\t\tuint256 downvotes;\n\t\tuint256 uploadTime;\n\t\tstring[] comments;\n\t\taddress payable uploader;\n\t}\n\n\t// Event\n\tevent PostUploaded(\n\t\tuint256 postId,\n\t\tstring postHash,\n\t\tstring postTitle,\n\t\tstring postCategory,\n\t\tstring postDescription,\n\t\tuint256 upvotes,\n\t\tuint256 downvotes,\n\t\tuint256 uploadTime,\n\t\tstring[] comments,\n\t\taddress payable uploader\n\t);\n\n\tfunction postUpvoted(uint32 _postId) public returns (bool) {\n\t\t// checks if the user alredy up voted and the post is exist or not\n\t\tif (\n\t\t\t!upVoteListGlobal[_postId][msg.sender] && uint256(_postId) < postCount\n\t\t) {\n\t\t\tupVoteListGlobal[_postId][msg.sender] = true;\n\t\t\tposts[_postId].upvotes++;\n\t\t\treturn true;\n\t\t} else {\n\t\t\treturn false;\n\t\t}\n\t}\n\n\t// change build file\n\tfunction test() public pure returns (bool) {\n\t\treturn false;\n\t}\n\n\tfunction postDownvoted(uint32 _postId) public returns (bool) {\n\t\t// checks if the user alredy down voted and the post is exist or not\n\t\tif (\n\t\t\t!downVoteListGlobal[_postId][msg.sender] && uint256(_postId) < postCount\n\t\t) {\n\t\t\tdownVoteListGlobal[_postId][msg.sender] = true;\n\t\t\tposts[_postId].downvotes++;\n\t\t\treturn true;\n\t\t} else {\n\t\t\treturn false;\n\t\t}\n\t}\n\n\tfunction addComment(uint256 _postId, string memory _comment) public {\n\t\tposts[_postId].comments.push(_comment);\n\t}\n\n\t//   function getComment(uint _id,uint i) public view returns(string memory){\n\t//       return posts[_id].comments[i];\n\t//   }\n\n\t// Upload post function\n\tfunction uploadPost(\n\t\tstring memory _postHash,\n\t\tstring memory _postTitle,\n\t\tstring memory _postCategory,\n\t\tstring memory _postDescription\n\t) public {\n\t\t// Make sure the post hash exists\n\t\trequire(bytes(_postHash).length > 0);\n\t\t// Make sure  postTitle exists\n\t\trequire(bytes(_postTitle).length > 0);\n\t\t// Make sure  postTitle exists\n\t\trequire(bytes(_postCategory).length > 0);\n\t\t// Make sure post description exists\n\t\trequire(bytes(_postDescription).length > 0);\n\t\t// Make sure uploader address exists\n\t\trequire(msg.sender != address(0));\n\n\t\tstring[] memory vector;\n\t\t// Add Post to the contract\n\n\t\t// upvoteListGlobal = Post\n\t\tposts[postCount] = Post(\n\t\t\tpostCount,\n\t\t\t_postHash,\n\t\t\t_postTitle,\n\t\t\t_postCategory,\n\t\t\t_postDescription,\n\t\t\t0,\n\t\t\t0,\n\t\t\tblock.timestamp,\n\t\t\tvector,\n\t\t\tpayable(msg.sender)\n\t\t);\n\n\t\t// Increment post id\n\t\tpostCount++;\n\n\t\t// Trigger an event\n\t\temit PostUploaded(\n\t\t\tpostCount,\n\t\t\t_postHash,\n\t\t\t_postTitle,\n\t\t\t_postCategory,\n\t\t\t_postDescription,\n\t\t\t0,\n\t\t\t0,\n\t\t\tblock.timestamp,\n\t\t\tvector,\n\t\t\tpayable(msg.sender)\n\t\t);\n\t}\n}\n",
  "sourcePath": "/home/opsadmin/blockchain/WhistleBlower/contracts/whistleBlower.sol",
  "compiler": {
    "name": "solc",
    "version": "0.8.10+commit.fc410830.Emscripten.clang"
  },
  "schemaVersion": "3.4.3",
  "updatedAt": "2021-12-14T16:50:52.582Z",
  "networkType": "ethereum",
  "devdoc": {
    "kind": "dev",
    "methods": {},
    "version": 1
  },
  "userdoc": {
    "kind": "user",
    "methods": {},
    "version": 1
  }
}