{
  "contractName": "whistlerblower",
  "abi": [
    {
      "anonymous": false,
      "inputs": [
        {
          "indexed": false,
          "internalType": "uint256",
          "name": "postId",
          "type": "uint256"
        },
        {
          "indexed": false,
          "internalType": "string",
          "name": "postHash",
          "type": "string"
        },
        {
          "indexed": false,
          "internalType": "string",
          "name": "postTitle",
          "type": "string"
        },
        {
          "indexed": false,
          "internalType": "string",
          "name": "postCategory",
          "type": "string"
        },
        {
          "indexed": false,
          "internalType": "string",
          "name": "postDescription",
          "type": "string"
        },
        {
          "indexed": false,
          "internalType": "uint256",
          "name": "upvotes",
          "type": "uint256"
        },
        {
          "indexed": false,
          "internalType": "uint256",
          "name": "downvotes",
          "type": "uint256"
        },
        {
          "indexed": false,
          "internalType": "uint256",
          "name": "uploadTime",
          "type": "uint256"
        },
        {
          "indexed": false,
          "internalType": "string[]",
          "name": "comments",
          "type": "string[]"
        },
        {
          "indexed": false,
          "internalType": "address payable",
          "name": "uploader",
          "type": "address"
        }
      ],
      "name": "PostUploaded",
      "type": "event"
    },
    {
      "inputs": [],
      "name": "name",
      "outputs": [
        {
          "internalType": "string",
          "name": "",
          "type": "string"
        }
      ],
      "stateMutability": "view",
      "type": "function",
      "constant": true
    },
    {
      "inputs": [],
      "name": "postCount",
      "outputs": [
        {
          "internalType": "uint256",
          "name": "",
          "type": "uint256"
        }
      ],
      "stateMutability": "view",
      "type": "function",
      "constant": true
    },
    {
      "inputs": [
        {
          "internalType": "uint256",
          "name": "",
          "type": "uint256"
        }
      ],
      "name": "posts",
      "outputs": [
        {
          "internalType": "uint256",
          "name": "postId",
          "type": "uint256"
        },
        {
          "internalType": "string",
          "name": "postHash",
          "type": "string"
        },
        {
          "internalType": "string",
          "name": "postTitle",
          "type": "string"
        },
        {
          "internalType": "string",
          "name": "postCategory",
          "type": "string"
        },
        {
          "internalType": "string",
          "name": "postDescription",
          "type": "string"
        },
        {
          "internalType": "uint256",
          "name": "upvotes",
          "type": "uint256"
        },
        {
          "internalType": "uint256",
          "name": "downvotes",
          "type": "uint256"
        },
        {
          "internalType": "uint256",
          "name": "uploadTime",
          "type": "uint256"
        },
        {
          "internalType": "address payable",
          "name": "uploader",
          "type": "address"
        }
      ],
      "stateMutability": "view",
      "type": "function",
      "constant": true
    },
    {
      "inputs": [
        {
          "internalType": "uint256",
          "name": "_postId",
          "type": "uint256"
        }
      ],
      "name": "postUpvoted",
      "outputs": [],
      "stateMutability": "nonpayable",
      "type": "function"
    },
    {
      "inputs": [
        {
          "internalType": "uint256",
          "name": "_postId",
          "type": "uint256"
        }
      ],
      "name": "postDownvoted",
      "outputs": [],
      "stateMutability": "nonpayable",
      "type": "function"
    },
    {
      "inputs": [
        {
          "internalType": "uint256",
          "name": "_postId",
          "type": "uint256"
        },
        {
          "internalType": "string",
          "name": "_comment",
          "type": "string"
        }
      ],
      "name": "addComment",
      "outputs": [],
      "stateMutability": "nonpayable",
      "type": "function"
    },
    {
      "inputs": [
        {
          "internalType": "string",
          "name": "_postHash",
          "type": "string"
        },
        {
          "internalType": "string",
          "name": "_postTitle",
          "type": "string"
        },
        {
          "internalType": "string",
          "name": "_postCategory",
          "type": "string"
        },
        {
          "internalType": "string",
          "name": "_postDescription",
          "type": "string"
        }
      ],
      "name": "uploadPost",
      "outputs": [],
      "stateMutability": "nonpayable",
      "type": "function"
    }
  ],
  "bytecode": "0x60806040526040518060400160405280600d81526020017f57686973746c65426c6f7765720000000000000000000000000000000000000081525060009080519060200190620000519291906200006b565b5060006001553480156200006457600080fd5b5062000180565b82805462000079906200014a565b90600052602060002090601f0160209004810192826200009d5760008555620000e9565b82601f10620000b857805160ff1916838001178555620000e9565b82800160010185558215620000e9579182015b82811115620000e8578251825591602001919060010190620000cb565b5b509050620000f89190620000fc565b5090565b5b8082111562000117576000816000905550600101620000fd565b5090565b7f4e487b7100000000000000000000000000000000000000000000000000000000600052602260045260246000fd5b600060028204905060018216806200016357607f821691505b602082108114156200017a57620001796200011b565b5b50919050565b6110c780620001906000396000f3fe608060405234801561001057600080fd5b506004361061007d5760003560e01c80632f9c05011161005b5780632f9c0501146100f657806340a2e7f3146101125780634ac8e7fd1461012e578063aa7e56831461014a5761007d565b806306fdde03146100825780630b1e7f83146100a057806317906c2e146100d8575b600080fd5b61008a610166565b6040516100979190610993565b60405180910390f35b6100ba60048036038101906100b591906109ff565b6101f4565b6040516100cf99989796959493929190610a7c565b60405180910390f35b6100e0610482565b6040516100ed9190610b25565b60405180910390f35b610110600480360381019061010b91906109ff565b610488565b005b61012c600480360381019061012791906109ff565b6104b7565b005b61014860048036038101906101439190610c75565b6104e6565b005b610164600480360381019061015f9190610d4c565b61073f565b005b6000805461017390610dd7565b80601f016020809104026020016040519081016040528092919081815260200182805461019f90610dd7565b80156101ec5780601f106101c1576101008083540402835291602001916101ec565b820191906000526020600020905b8154815290600101906020018083116101cf57829003601f168201915b505050505081565b600260205280600052604060002060009150905080600001549080600101805461021d90610dd7565b80601f016020809104026020016040519081016040528092919081815260200182805461024990610dd7565b80156102965780601f1061026b57610100808354040283529160200191610296565b820191906000526020600020905b81548152906001019060200180831161027957829003601f168201915b5050505050908060020180546102ab90610dd7565b80601f01602080910402602001604051908101604052809291908181526020018280546102d790610dd7565b80156103245780601f106102f957610100808354040283529160200191610324565b820191906000526020600020905b81548152906001019060200180831161030757829003601f168201915b50505050509080600301805461033990610dd7565b80601f016020809104026020016040519081016040528092919081815260200182805461036590610dd7565b80156103b25780601f10610387576101008083540402835291602001916103b2565b820191906000526020600020905b81548152906001019060200180831161039557829003601f168201915b5050505050908060040180546103c790610dd7565b80601f01602080910402602001604051908101604052809291908181526020018280546103f390610dd7565b80156104405780601f1061041557610100808354040283529160200191610440565b820191906000526020600020905b81548152906001019060200180831161042357829003601f168201915b5050505050908060050154908060060154908060070154908060090160009054906101000a900473ffffffffffffffffffffffffffffffffffffffff16905089565b60015481565b6002600082815260200190815260200160002060050160008154809291906104af90610e38565b919050555050565b6002600082815260200190815260200160002060060160008154809291906104de90610e38565b919050555050565b60008451116104f457600080fd5b600083511161050257600080fd5b600082511161051057600080fd5b600081511161051e57600080fd5b600073ffffffffffffffffffffffffffffffffffffffff163373ffffffffffffffffffffffffffffffffffffffff16141561055857600080fd5b6001600081548092919061056b90610e38565b91905055506060604051806101400160405280600154815260200186815260200185815260200184815260200183815260200160008152602001600081526020014281526020018281526020013373ffffffffffffffffffffffffffffffffffffffff1681525060026000600154815260200190815260200160002060008201518160000155602082015181600101908051906020019061060d929190610793565b50604082015181600201908051906020019061062a929190610793565b506060820151816003019080519060200190610647929190610793565b506080820151816004019080519060200190610664929190610793565b5060a0820151816005015560c0820151816006015560e082015181600701556101008201518160080190805190602001906106a0929190610819565b506101208201518160090160006101000a81548173ffffffffffffffffffffffffffffffffffffffff021916908373ffffffffffffffffffffffffffffffffffffffff1602179055509050507ff4f1fa03f043864b0f767a6eb5b3e74749ec9b6c3a25dc9ea08db53396b0c011600154868686866000804289336040516107309a99989796959493929190610fd2565b60405180910390a15050505050565b600260008381526020019081526020016000206008018190806001815401808255809150506001900390600052602060002001600090919091909150908051906020019061078e929190610793565b505050565b82805461079f90610dd7565b90600052602060002090601f0160209004810192826107c15760008555610808565b82601f106107da57805160ff1916838001178555610808565b82800160010185558215610808579182015b828111156108075782518255916020019190600101906107ec565b5b5090506108159190610879565b5090565b828054828255906000526020600020908101928215610868579160200282015b82811115610867578251829080519060200190610857929190610793565b5091602001919060010190610839565b5b5090506108759190610896565b5090565b5b8082111561089257600081600090555060010161087a565b5090565b5b808211156108b657600081816108ad91906108ba565b50600101610897565b5090565b5080546108c690610dd7565b6000825580601f106108d857506108f7565b601f0160209004906000526020600020908101906108f69190610879565b5b50565b600081519050919050565b600082825260208201905092915050565b60005b83811015610934578082015181840152602081019050610919565b83811115610943576000848401525b50505050565b6000601f19601f8301169050919050565b6000610965826108fa565b61096f8185610905565b935061097f818560208601610916565b61098881610949565b840191505092915050565b600060208201905081810360008301526109ad818461095a565b905092915050565b6000604051905090565b600080fd5b600080fd5b6000819050919050565b6109dc816109c9565b81146109e757600080fd5b50565b6000813590506109f9816109d3565b92915050565b600060208284031215610a1557610a146109bf565b5b6000610a23848285016109ea565b91505092915050565b610a35816109c9565b82525050565b600073ffffffffffffffffffffffffffffffffffffffff82169050919050565b6000610a6682610a3b565b9050919050565b610a7681610a5b565b82525050565b600061012082019050610a92600083018c610a2c565b8181036020830152610aa4818b61095a565b90508181036040830152610ab8818a61095a565b90508181036060830152610acc818961095a565b90508181036080830152610ae0818861095a565b9050610aef60a0830187610a2c565b610afc60c0830186610a2c565b610b0960e0830185610a2c565b610b17610100830184610a6d565b9a9950505050505050505050565b6000602082019050610b3a6000830184610a2c565b92915050565b600080fd5b600080fd5b7f4e487b7100000000000000000000000000000000000000000000000000000000600052604160045260246000fd5b610b8282610949565b810181811067ffffffffffffffff82111715610ba157610ba0610b4a565b5b80604052505050565b6000610bb46109b5565b9050610bc08282610b79565b919050565b600067ffffffffffffffff821115610be057610bdf610b4a565b5b610be982610949565b9050602081019050919050565b82818337600083830152505050565b6000610c18610c1384610bc5565b610baa565b905082815260208101848484011115610c3457610c33610b45565b5b610c3f848285610bf6565b509392505050565b600082601f830112610c5c57610c5b610b40565b5b8135610c6c848260208601610c05565b91505092915050565b60008060008060808587031215610c8f57610c8e6109bf565b5b600085013567ffffffffffffffff811115610cad57610cac6109c4565b5b610cb987828801610c47565b945050602085013567ffffffffffffffff811115610cda57610cd96109c4565b5b610ce687828801610c47565b935050604085013567ffffffffffffffff811115610d0757610d066109c4565b5b610d1387828801610c47565b925050606085013567ffffffffffffffff811115610d3457610d336109c4565b5b610d4087828801610c47565b91505092959194509250565b60008060408385031215610d6357610d626109bf565b5b6000610d71858286016109ea565b925050602083013567ffffffffffffffff811115610d9257610d916109c4565b5b610d9e85828601610c47565b9150509250929050565b7f4e487b7100000000000000000000000000000000000000000000000000000000600052602260045260246000fd5b60006002820490506001821680610def57607f821691505b60208210811415610e0357610e02610da8565b5b50919050565b7f4e487b7100000000000000000000000000000000000000000000000000000000600052601160045260246000fd5b6000610e43826109c9565b91507fffffffffffffffffffffffffffffffffffffffffffffffffffffffffffffffff821415610e7657610e75610e09565b5b600182019050919050565b6000819050919050565b6000819050919050565b6000610eb0610eab610ea684610e81565b610e8b565b6109c9565b9050919050565b610ec081610e95565b82525050565b600081519050919050565b600082825260208201905092915050565b6000819050602082019050919050565b600082825260208201905092915050565b6000610f0e826108fa565b610f188185610ef2565b9350610f28818560208601610916565b610f3181610949565b840191505092915050565b6000610f488383610f03565b905092915050565b6000602082019050919050565b6000610f6882610ec6565b610f728185610ed1565b935083602082028501610f8485610ee2565b8060005b85811015610fc05784840389528151610fa18582610f3c565b9450610fac83610f50565b925060208a01995050600181019050610f88565b50829750879550505050505092915050565b600061014082019050610fe8600083018d610a2c565b8181036020830152610ffa818c61095a565b9050818103604083015261100e818b61095a565b90508181036060830152611022818a61095a565b90508181036080830152611036818961095a565b905061104560a0830188610eb7565b61105260c0830187610eb7565b61105f60e0830186610a2c565b8181036101008301526110728185610f5d565b9050611082610120830184610a6d565b9b9a505050505050505050505056fea26469706673582212204be68033d821546bccb5bd994de4a39b7f50e1d16da2510a8ac12545399e874364736f6c634300080a0033",
  "immutableReferences": {},
  "source": "// SPDX-License-Identifier: MIT\npragma solidity >=0.8.10 <0.9.0;\n\ncontract whistlerblower {\n  // Name\n  string public name = 'WhistleBlower';//no need\n  // Number of posts\n  uint public postCount = 0;\n  // Mapping fileId=>Struct \n  mapping( uint => Post) public posts;\n\n  // Struct\n  struct Post{\n   uint postId;\n   string postHash;\n   string postTitle;\n   string postCategory;\n   string postDescription;\n   uint upvotes;\n   uint downvotes;\n   uint uploadTime;\n   string[] comments;\n   address payable uploader; \n  }\n\n\n  // Event\n  event PostUploaded(\n    uint postId,\n    string postHash,\n    string postTitle,\n    string postCategory,\n    string postDescription,\n    uint upvotes,\n    uint downvotes,\n    uint uploadTime,\n    string[] comments,\n    address payable uploader\n  );\n \n  function postUpvoted(uint _postId) public {\n    posts[_postId].upvotes++;\n  }\n  function postDownvoted(uint _postId) public {\n    posts[_postId].downvotes++;\n  }\n\n  function addComment(uint _postId, string memory _comment) public{\n      posts[_postId].comments.push(_comment);\n  }\n\n//   function getComment(uint _id,uint i) public view returns(string memory){\n//       return posts[_id].comments[i];\n//   }\n\n  // Upload post function\n  function uploadPost(string memory _postHash,string memory _postTitle,string memory _postCategory,string memory _postDescription) public  {\n    // Make sure the post hash exists\n      require(bytes(_postHash).length > 0);\n    // Make sure  postTitle exists\n      require(bytes(_postTitle).length > 0);\n    // Make sure  postTitle exists\n      require(bytes(_postCategory).length > 0);\n    // Make sure post description exists\n      require(bytes(_postDescription).length > 0);\n    // Make sure uploader address exists\n      require(msg.sender!=address(0));\n\n    // Increment post id\n    postCount++;\n    string[] memory vector;\n    // Add Post to the contract\n    posts[postCount] = Post(postCount, _postHash, _postTitle, _postCategory, _postDescription,0,0,block.timestamp,vector,payable(msg.sender));\n\n    // Trigger an event\n    emit PostUploaded(postCount, _postHash, _postTitle, _postCategory, _postDescription,0,0,block.timestamp,vector,payable(msg.sender));\n  }\n\n}\n",
  "sourcePath": "/home/bhanu/blockchain/WhistleBlower/contracts/whistlerblower.sol",
  "compiler": {
    "name": "solc",
    "version": "0.8.10+commit.fc410830.Emscripten.clang"
  },
  "schemaVersion": "3.4.3",
  "updatedAt": "2021-12-12T10:31:53.398Z",
  "networkType": "ethereum",
  "devdoc": {
    "kind": "dev",
    "methods": {},
    "version": 1
  },
  "userdoc": {
    "kind": "user",
    "methods": {},
    "version": 1
  }
}